:020000020000FC
:100000005EC018951895189518951895189512C0F2
:1000100018951895189521C0189518951895189544
:10002000189518952DC01895189518951895189528
:10003000189518958FB78F932196D23011F4D1E08F
:10004000CAE280E087BD8881869587BD70817695FC
:10005000870F87BD8F918FBF18958FB78F9331967C
:10006000F23011F4F1E0EAE280E087BD8881869504
:1000700087BD70817695870F87BD8F918FBF18954B
:100080008FB78F93F8949091C6009D938091C00094
:1000900085FFFCCF9093C600903469F4B1E0A0E0F6
:1000A0008091C00085FFFCCF7093C6007D917034B5
:1000B000B9F7B1E0A0E08F918FBF7894189574E004
:1000C0007EBF7FEF7DBF7FEF74B970EF7AB970EFBD
:1000D0007BB972E874BD71E075BD77E070936E0016
:1000E00070E07093800079E07093810077E0709306
:1000F0006F0072E07093B00071E07093B10077E030
:100100007093700060E0D1E0CAE274E07093C500C3
:1001100071E17093C40078E97093C10076E0709348
:10012000C200B1E0A0E07894FFCF808386898C8FF5
:100130009295989C9FA2A5A8ABAEB0B3B6B9BCBF30
:10014000C1C4C7C9CCCED1D3D5D8DADCDEE0E2E475
:10015000E6E8EAECEDEFF0F2F3F5F6F7F8F9FAFB82
:10016000FCFCFDFEFEFFFFFFFFFFFFFFFFFFFFFFA9
:10017000FEFEFDFCFCFBFAF9F8F7F6F5F3F2F0EF02
:10018000EDECEAE8E6E4E2E0DEDCDAD8D5D3D1CE85
:10019000CCC9C7C4C1BFBCB9B6B3B0AEABA8A5A2E9
:1001A0009F9C9895928F8C898683807C79767370DA
:1001B0006D6A6763605D5A5754514F4C49464340DE
:1001C0003E3B383633312E2C2A272523211F1D1B79
:1001D0001917151312100F0D0C0A0908070605044C
:1001E0000303020101000000000000000000000005
:1001F00001010203030405060708090A0C0D0F108C
:1002000012131517191B1D1F212325272A2C2E31E8
:100210003336383B3E404346494C4F5154575A5D64
:100220006063676A6D707376797C7F818385878967
:100230008B8D8F91939597999B9D9FA1A3A5A7A91E
:10024000ABADAFB1B3B5B7B9BBBDBFC1C3C5C7C90E
:10025000CBCDCFD1D3D5D7D9DBDDDFE1E3E5E7E9FE
:10026000EBEDEFF1F3F5F7F9FBFDFFFDFBF9F7F52A
:10027000F3F1EFEDEBE9E7E5E3E1DFDDDBD9D7D53E
:10028000D3D1CFCDCBC9C7C5C3C1BFBDBBB9B7B52E
:10029000B3B1AFADABA9A7A5A3A19F9D9B9997951E
:1002A00093918F8D8B89878583817F7D7B7977750E
:1002B00073716F6D6B69676563615F5D5B595755FE
:1002C00053514F4D4B49474543413F3D3B393735EE
:1002D00033312F2D2B29272523211F1D1B191715DE
:1002E00013110F0D0B090705030100020406080A8C
:1002F0000C0E10121416181A1C1E20222426282A4E
:100300002C2E30323436383A3C3E40424446484A3D
:100310004C4E50525456585A5C5E60626466686A2D
:0C0320006C6E70727476787A7C7E7000CF
:00000001FF
