:100000006CC07BC07AC079C078C077C076C08AC027
:1000100074C073C072C07CC070C06FC06EC06DC051
:100020006DC06BC0ACC069C068C067C066C065C049
:1000300064C063C0B1A79E958C857D766F69635E51
:1000400058534F4A46423E3B3734312F2C292725FF
:1000500023211F1D1B1A18171680868C92989FA5A6
:10006000ABB0B6BCC1C7CCD1D5DADEE2E6EAEDF082
:10007000F3F6F8FAFCFDFEFFFFFFFFFFFEFDFCFAC2
:10008000F8F6F3F0EDEAE6E2DEDAD5D1CCC7C1BC92
:10009000B6B0ABA59F98928C868079736D67605AD5
:1000A000544F49433E38332E2A25211D1915120F6E
:1000B0000C0907050302010000000000010203050E
:1000C00007090C0F1215191D21252A2E33383E431E
:1000D000494F545A60676D73790011241FBECFEFEA
:1000E000D4E0DEBFCDBF11E0A0E0B1E001C01D92C1
:1000F000A031B107E1F753D082C082CF1F920F9297
:100100000FB60F9211240F900FBE0F901F901895ED
:100110001F920F920FB60F9211240F900FBE0F90E7
:100120001F9018951F920F920FB60F9211242F93C4
:100130003F938F939F93EF93FF9380910001909152
:10014000010101969C01295530402138310514F0F8
:1001500089E590E09093010180930001E091000116
:10016000F0910101808187BDFF91EF919F918F9167
:100170003F912F910F900FBE0F901F9018951F92D7
:100180000F920FB60F9211248F93F8948091C600AE
:1001900078948F910F900FBE0F901F9018958FEF4E
:1001A00084B990EF9AB98BB983E884BD81E085BDAD
:1001B00080936E001092800089E08093810082E03D
:1001C00080936F008093B0008093B10080937000A3
:1001D00080E194E09093C5008093C40088EB809305
:1001E000C10086E08093C20089E590E09093010110
:1001F000809300018CE78093B3007894FFCFF8944C
:02020000FFCF2E
:00000001FF
