:1000000099C0A8C0A7C0A6C0A5C0A4C0A3C0E9C08D
:10001000A1C0A0C09FC0C0C09DC09CC09BC09AC0D2
:100020009AC098C0E8C096C095C094C093C092C0D2
:1000300091C090C0808386898C8F9295989C9FA256
:10004000A5A8ABAEB0B3B6B9BCBFC1C4C7C9CCCE0E
:10005000D1D3D5D8DADCDEE0E2E4E6E8EAECEDEF95
:10006000F0F2F3F5F6F7F8F9FAFBFCFCFDFEFEFF03
:10007000FFFFFFFFFFFFFFFFFFFFFEFEFDFCFCFB9E
:10008000FAF9F8F7F6F5F3F2F0EFEDECEAE8E6E46A
:10009000E2E0DEDCDAD8D5D3D1CECCC9C7C4C1BF4B
:1000A000BCB9B6B3B0AEABA8A5A29F9C9895928FF1
:1000B0008C898683807C797673706D6A6763605DF6
:1000C0005A5754514F4C494643403E3B38363331E2
:1000D0002E2C2A272523211F1D1B1917151312103B
:1000E0000F0D0C0A090807060504030302010100AD
:1000F00000000000000000000000010102030304F2
:1001000005060708090A0C0D0F1012131517191B05
:100110001D1F212325272A2C2E313336383B3E4004
:100120004346494C4F5154575A5D6063676A6D703E
:100130007376797C11241FBECFEFD4E0DEBFCDBF34
:1001400011E0A0E0B1E001C01D92A231B107E1F7DA
:1001500062D09BC055CF1F920F920FB60F92112401
:100160008F939F93EF93FF93E0910E01F0910F0116
:100170008081982F9695E0910001F0910101808196
:100180008695890F87BDFF91EF919F918F910F9079
:100190000FBE0F901F9018951F920F920FB60F92DF
:1001A00011242F933F934F938F939F93809100013E
:1001B0009091010101969C0124533040213031403F
:1001C00014F084E390E090930101809300019F91EB
:1001D0008F914F913F912F910F900FBE0F901F90D5
:1001E00018951F920F920FB60F9211240F900FBE09
:1001F0000F901F9018951F920F920FB60F92112417
:100200008F93F8948091C60078948F910F900FBED1
:100210000F901F9018958FEF84B990EF9AB98BB912
:1002200083E884BD91E095BD90936E0010928000AC
:1002300089E08093810082E080936F008093B0001A
:100240009093B1008093700080E194E09093C5009A
:100250008093C40088EB8093C10086E08093C20045
:1002600084E390E0909301018093000190930F014B
:1002700080930E018CE690E0909389008093880033
:0E02800081EB8093B3007894FFCFF894FFCF0A
:00000001FF
