:1000000059C068C067C066C065C064C063C077C0BF
:1000100061C060C05FC069C05DC05CC05BC05AC0E9
:100020005AC058C099C056C055C054C053C052C0E1
:1000300051C050C080868C92989FA5ABB0B6BCC111
:10004000C7CCD1D5DADEE2E6EAEDF0F3F6F8FAFC59
:10005000FDFEFFFFFFFFFFFEFDFCFAF8F6F3F0EDFB
:10006000EAE6E2DEDAD5D1CCC7C1BCB6B0ABA59F1B
:1000700098928C868079736D67605A544F49433EDD
:1000800038332E2A25211D1915120F0C09070503D7
:10009000020100000000000102030507090C0F1215
:1000A00015191D21252A2E33383E43494F545A60D5
:1000B000676D737911241FBECFEFD4E0DEBFCDBFD3
:1000C00011E0A0E0B1E001C01D92A031B107E1F75D
:1000D00053D082C095CF1F920F920FB60F9211246A
:1000E0000F900FBE0F901F9018951F920F920FB692
:1000F0000F9211240F900FBE0F901F9018951F9212
:100100000F920FB60F9211242F933F938F939F93CB
:10011000EF93FF93809100019091010101969C0162
:10012000245330402138310514F084E390E090935B
:10013000010180930001E0910001F09101018081B3
:1001400087BDFF91EF919F918F913F912F910F90DC
:100150000FBE0F901F9018951F920F920FB60F921F
:1001600011248F93F8948091C60078948F910F900A
:100170000FBE0F901F9018958FEF84B990EF9AB92A
:100180008BB983E884BD81E085BD80936E001092B9
:10019000800089E08093810082E080936F008093EB
:1001A000B0008093B1008093700080E194E0909360
:1001B000C5008093C40088EB8093C10086E08093E3
:1001C000C20084E390E090930101809300018CE7EA
:0C01D0008093B3007894FFCFF894FFCF29
:00000001FF
