:100000005BC06AC069C068C067C066C065C079C0AF
:1000100063C062C061C06BC05FC05EC05DC05CC0D9
:100020005CC05AC09BC058C057C056C055C054C0D1
:1000300053C052C0938B8380868C92989FA5ABB09F
:10004000B6BCC1C7CCD1D5DADEE2E6EAEDF0F3F614
:10005000F8FAFCFDFEFFFFFFFFFFFEFDFCFAF8F6DD
:10006000F3F0EDEAE6E2DEDAD5D1CCC7C1BCB6B03A
:10007000ABA59F98928C868079736D67605A544FB8
:1000800049433E38332E2A25211D1915120F0C091C
:100090000705030201000000000001020305070933
:1000A0000C0F1215191D21252A2E33383E43494FB6
:1000B000545A60676D73790011241FBECFEFD4E0EE
:1000C000DEBFCDBF11E0A0E0B1E001C01D92A231C2
:1000D000B107E1F753D086C093CF1F920F920FB6AE
:1000E0000F9211240F900FBE0F901F9018951F9222
:1000F0000F920FB60F9211240F900FBE0F901F900A
:1001000018951F920F920FB60F9211242F933F93C1
:100110008F939F93EF93FF93809100019091010142
:1001200001969C01275330402138310514F087E3B4
:1001300090E09093010180930001E0910001F09123
:100140000101808187BDFF91EF919F918F913F9138
:100150002F910F900FBE0F901F9018951F920F9226
:100160000FB60F9211248F93F8948091C600789463
:100170008F910F900FBE0F901F9018958FEF84B93D
:1001800090EF9AB98BB983E884BD81E085BD8093F7
:100190006E001092800089E08093810082E080935D
:1001A0006F008093B0008093B1008093700080E175
:1001B00094E09093C5008093C40088EB8093C100C5
:1001C00086E08093C20087E390E0909301018093E2
:1001D000000190930F0180930E018CE78093B30090
:0801E0007894FFCFF894FFCFE3
:00000001FF
