:1000000019C128C127C126C125C124C123C172C17C
:1000100021C120C11FC149C11DC11CC11BC11AC1C1
:100020001AC118C117C116C115C114C113C112C11B
:1000300011C110C180008300860089008C008F00F0
:100040009200950098009C009F00A200A500A800C7
:10005000AB00AE00B000B300B600B900BC00BF00FA
:10006000C100C400C700C900CC00CE00D100D3003D
:10007000D500D800DA00DC00DE00E000E200E40099
:10008000E600E800EA00EC00ED00EF00F000F2000E
:10009000F300F500F600F700F800F900FA00FB00A5
:1000A000FC00FC00FD00FE00FE00FF00FF00FF0062
:1000B000FF00FF00FF00FF00FF00FF00FF00FF0048
:1000C000FE00FE00FD00FC00FC00FB00FA00F90051
:1000D000F800F700F600F500F300F200F000EF0082
:1000E000ED00EC00EA00E800E600E400E200E000D9
:1000F000DE00DC00DA00D800D500D300D100CE004D
:10010000CC00C900C700C400C100BF00BC00B900DA
:10011000B600B300B000AE00AB00A800A500A2007E
:100120009F009C009800950092008F008C00890031
:100130008600830080007C007900760073007000E8
:100140006D006A006700630060005D005A005700A0
:10015000540051004F004C0049004600430040004D
:100160003E003B0038003600330031002E002C00EA
:100170002A0027002500230021001F001D001B006E
:100180001900170015001300120010000F000D00D9
:100190000C000A0009000800070006000500040022
:1001A0000300030002000100010000000000000045
:1001B000000000000000000000000000000000003F
:1001C0000100010002000300030004000500060016
:1001D0000700080009000A000C000D000F001000C5
:1001E000120013001500170019001B001D001F004E
:1001F00021002300250027002A002C002E003100BA
:100200003300360038003B003E004000430046000B
:1002100049004C004F005100540057005A005D0047
:100220006000630067006A006D0070007300760074
:1002300079007C0011241FBECFEFD4E0DEBFCDBF1C
:1002400011E0A0E0B1E001C01D92A430B107E1F7D8
:1002500076D0A5C0D5CE1F920F920FB60F92112463
:100260002F933F938F939F93EF93FF93F894E09195
:100270000001F091010180819181E0910201F091F2
:100280000301208131813695279596958795820FB8
:1002900087BD7894FF91EF919F918F913F912F911E
:1002A0000F900FBE0F901F9018951F920F920FB6D0
:1002B0000F9211242F933F934F938F939F9380918D
:1002C00000019091010102969C012453304022309C
:1002D000324014F084E390E0909301018093000198
:1002E0009F918F914F913F912F910F900FBE0F9043
:1002F0001F9018951F920F920FB60F9211242F93F3
:100300003F934F938F939F938091020190910301AC
:1003100002969C01245330402230324014F084E392
:1003200090E090930301809302019F918F914F91F0
:100330003F912F910F900FBE0F901F9018958FEF48
:1003400084B990EF9AB98BB983E884BD91E095BDEB
:1003500090936E001092800089E08093810082E08B
:1003600080936F0010926F008093B0009093B10063
:100370008093700084E390E09093010180930001EA
:1003800090930301809302018AE691E090938900A3
:100390008093880080EB8093B3007894FFCFF8942B
:0203A000FFCF8D
:00000001FF
